:1008C700E50CFD3395E0FCED64044C70037FFF22DB
:1008D700E50DFD3395E0FC4D7028AE0CEEFB33952E
:1008E700E0FAD3EB9400EA64809480400F74072EFB
:1008F700F8E6FB74082EF8A6031E80E08F08050EA5
:100907008018BCFF0CBDFF09E4F50DF50E8F0880BC
:0E09170009150D7408250DF8A607050CAF0C88
:0109250022AF
:10080000E50CFD3395E0FCED64044C70037FFF22A2
:10081000E50EFD3395E0FCED64034C702AE50D1404
:10082000FEEEFB3395E0FAC3EB9403EA6480948018
:10083000500F74092EF8E6FB74082EF8A6030E80FC
:10084000E08F0B150D8018BCFF0CBDFF09E4F50D02
:10085000F50E8F088009050E7408250EF8A6070509
:030860000CAF0CCE
:010863002272
:10092600AF0CEF3395E04F70061209CC7FFF2274AF
:1009360008250DF8E6FFE50CFD3395E0FCED6401B6
:100946004C700D1209CC750DFF750EFFF50C800964
:09095600050D150CE50C1209CC8D
:01095F002275
:10096000AF0CEF3395E04F70061209CC7FFF227475
:1009700008250EF8E6FFE50CFD3395E0FCED64017B
:100980004C700D1209CC750DFF750EFFF50C80092A
:09099000150E150CE50C1209CC42
:01099900223B
:10099A00E50C1209CCAF0CEF3395E04F60087408F0
:0909AA00250DF8E6FF227FFF2273
:1009B300E50C1209CCAF0CEF3395E04F60087408D7
:0909C300250EF8E6FF227FFF2259
:0309EA00AF0C222D
:100864007FAA750FBB750DFF750EFFE4F50CE50C43
:10087400FD3395E0FCD3ED9404EC6480948050EE59
:100884007FCC1208C77FDD1208007B007A00790F45
:100894001209B37FEE1208C77FFF1208007F1112FE
:1008A40008C77B007A0012099A1209EA1209261273
:1008B40009601209261209601209261209B31209E5
:0308C4009A80AB6C
:030000000209DE14
:0C09DE00787FE4F6D8FD75810F020864F4
:1009CC00BB010689828A83F0225002F722BBFE010A
:0209DC00F32204
:00000001FF
