:1014270053656E64206120636861726163746572DD
:101437002E200020596F752073656E742027256351
:10144700272E0A0000436C69636B20332062757492
:10145700746F6E73206F6E206B65797061642E0AEE
:1014670020004B657970616420696E7075743A204D
:0414770025730A00CF
:0916060012147BD2007F057E0066
:10160F00E4FDFCC3ED9FEE6480F8EC648098501508
:10161F00E4FBFA0BBB00010AEB64644A70F50DBDE5
:05162F0000010C80DE4B
:011634002293
:10147B00EF30E004D2008002C200EF30E104D20072
:10148B008002C200EF30E204D2008002C200EF30D3
:10149B00E304D2008002C200EF30E404D2008002E9
:1014AB00C200EF30E504D2008002C200EF30E60448
:1014BB00D2008002C200EF30E703D20022C200222A
:07180C007E0012160F7F3071
:08181300C293121606C2002266
:051866007F01021813D0
:1016E0008F1AA905EF3395E0FEEF64014E7005E90E
:1016F00024808010AF1AEF3395E0FEEF64024E7045
:0917000007E924C0FF12181322AE
:1016B600E4FF12147BC2937FC812180C7F321218F3
:1016C6000C7F6E12180C7F381218137F0C12181329
:0A16D6007F011218137F060218139B
:08185E00D293121606C200220B
:061635008B088A09890AF6
:10163B00E4F50BF50CAB08AA09A90A850C82850BFE
:10164B0083120D18FF600D12185E050CE50C70E58A
:04165B00050B80E11A
:01165F002268
:05186B007F1C021813B0
:051870007F18021813AF
:10170900EF30E004D2008002C200EF30E104D200E1
:101719008002C200EF30E204D2008002C200EF3042
:08172900E303D20022C20022FA
:0717EA007E0012160F7F03C1
:0B17F100C293121709121609C2002251
:0A183600E4FF1217F17F010217F121
:041519008F12A9057F
:10151D00EF3395E0FEEF64014E700FE92480FFF587
:10152D00137804A2E713D8FB801AAF12EF3395E0BE
:10153D00FEEF64024E701EE924C0FFF5137804A27D
:10154D00E713D8FBF514EF540FF515AF141217F17F
:05155D00AF151217F1AB
:011562002266
:10159F00E4FF1217097FC81217EA7F321217EA7F8A
:1015AF006E1217EA7F021217F17F021217F17F08EE
:1015BF001217F1E4FF1217F17F0C1217F1E4FF126B
:0715CF0017F17F060217F17E
:02166000AE07D3
:10166200EE540FF9EE54F0FFD2937804A2E713D8A8
:10167200FBFF121709121609C200AF01121709D295
:08168200007F0512160FC200E3
:01168A00223D
:06168B008B0D8A0E890F91
:10169100E4F510F511AB0DAA0EA90F851182851085
:1016A10083120D18FF600D1216600511E51170E52A
:0416B100051080E1BF
:0116B5002212
:0A1840007F011217F17F0C0217F16F
:0A184A007F011217F17F080217F169
:1012C300759850438921758DFCD28ED2997F147EF7
:1012D30000121563121798D200C201121779D200B7
:1012E300D201D202121758E4F528F5247BFF7A14B1
:1012F3007927120DFD1218548F237BFF7A14793A44
:1013030085232C120DFD1217FC752CFF752D1475FA
:101313002E4B7B007A0079231213637F0A7E00121F
:1013230015637BFF7A14794C120DFD12120A8F2577
:1013330012120A8F2612120A8F27752C00752D00A0
:10134300752E257BFF7A147969120DFD752C0075B6
:101353002D00752E257BFF7A14794B121363808C35
:10156300AD07AC06E412099D7B327A5579D57839FB
:101573001208FBA804A905AA06AB07E4FFFE7D80B9
:101583007C471208038F2C8E2B8D2A8C291209D6A7
:0B1593007518008F19EEF51775160093
:01159E00222A
:1017FC0085198A85178CD28C308DFDC28CC28D22B6
:101363008B298A2A892B74FF90144B6B7008E965CB
:10137300827003EA6583600EE4FF1214CBAB29AAE3
:101383002AA92B1215D6AB2CAA2DA92E74FF9014C3
:101393004B652C700AE52E65827004E52D6583602C
:1013A3000E7F401214CBAB2CAA2DA92E1215D620DA
:1013B300A5030217D320A60930A706D200C20180D5
:0F13C3000A30A60A20A707D200D2011217B622BD
:10120A00D284D285D286C280D281D282D2832084ED
:10121A00091217FC3084FD7F23222085091217FC4E
:10122A003085FD7F30222086091217FC3086FD7F2B
:10123A002A22D280C281D282D2832084091217FC48
:10124A003084FD7F39222085091217FC3085FD7F05
:10125A0038222086091217FC3086FD7F3722D28079
:10126A00D281C282D2832084091217FC3084FD7F86
:10127A0036222085091217FC3085FD7F352220860B
:10128A00091217FC3086FD7F3422D280D281D282A5
:10129A00C2832084091217FC3084FD7F3322208503
:1012AA00091217FC3085FD7F322230860302120AAA
:0912BA001217FC3086FD7F312281
:1017D300C293C297C296C295C294D292C292D29534
:0717E300D292C2920217FC32
:10177900C293C297C296C295C294D292C292D2968D
:0F178900A2009295A2019294D292C2920217FCF2
:10175800C297C296C295C294D292C292D297A20060
:101768009296A2019295A2029294D292C2920217E4
:01177800FC74
:1017B600C293C297C296C295D294D292C292A20006
:0D17C6009297A2019296D292C2920217FC55
:10179800C297C296D295C294C293D292C29212179D
:0E17A800FCD292C292D297D292C2920217FC49
:1014CB008F2FC293D2977D0612181B92967D05AF74
:1014DB002F12181B92957D04AF2F12181B9294D2CA
:1014EB0092C2927D03AF2F12181B92977D02AF2FE2
:1014FB0012181B92967D01AF2F12181B9295E4FDCB
:0E150B00AF2F12181B9294D292C2920217FCBC
:1013D2008F347D0712181B92977D06AF3412181BAB
:1013E20092967D05AF3412181B92957D04AF34128C
:1013F200181B9294D293D292C2927D03AF341218E8
:101402001B92977D02AF3412181B92967D01AF3466
:1014120012181B9295E4FDAF3412181B9294D292CB
:05142200C2920217FC5C
:0615D6008B2F8A308931E1
:1015DC00E4F532F533AB2FAA30A93185338285324D
:1015EC0083120D18FFFD3395E04D600D1213D205DB
:0915FC0033E53370E0053280DCB8
:0116050022C2
:0F181B00AE05A806EF088003A2E713D8FB13223F
:10080000020A42E86480F8E933E83360110460F0DA
:10081000ED33EC337009E8FCE9FDEAFEEBFF22045E
:1008200060DED3EB9FEA9EE99DE8C2E78CF0C2F759
:1008300095F0400CE8CCF8E9CDF9EACEFAEBCFFB25
:10084000120A0D85D0F05804700320D5B3E8047067
:10085000075002B2D5020A4C92D5EC0460F7E4CC02
:10086000C0E0C398F8603B94186008400DD0E0FBEE
:10087000020A24E4FBFAC9FC8028E830E406E4C953
:10088000FBE4CAFCE830E305E4C9CACBFCE8540742
:100890006010F8C3E913F9EA13FAEB13FBEC13FC4D
:1008A000D8F130F52FC3E49CFCEF9BFFEE9AFEEDF0
:1008B00099FDD0E0FBEF4E4D4C701222DB03020A93
:1008C00049EC2CFCEF33FFEE33FEED33FDED30E76A
:1008D000EB020A24EF2BFFEE3AFEED39FDD0E0FBF0
:1008E00050130BBB0003020A4CED13FDEE13FEEF99
:0808F00013FFEC13FC020A24C3
:1008F800020A4CEC5D046005E859047003020A42E0
:10090800120A0D580460F6EC4860F2EC7004FDFE23
:10091800FF22C860DB2481C85009C39860025006D2
:10092800020A499850CAF582E9294B4A7005AB82F8
:10093800020A3875F0007C1A7880C3EF9BEE9AEDB6
:1009480099400DC3EF9BFFEE9AFEED99FDE842F04A
:10095800DC23ACF0D0E0FFD0E0FED0E0FDAB82209D
:10096800E7101BEB60BAEC2CFCEF33FFEE33FEED27
:1009780033FD020A24E803F830E705C0F075F000FB
:10098800EF2FFFEE33FEED33FD40B830E7C280AA0B
:1009980075F020800E75F010800575F0087D007EDA
:1009A800007F003392D530D503120D57EC33401039
:1009B800EF33FFEE33FEED33FDEC33FCD5F0ED22E3
:0E09C800E5F0247EA2D513CC92E7CDCEFF221F
:1009D600EDD2E7CD33EC3392D524814006E4FFFE19
:1009E600FDFC22FCE4CFCECDCC24E0501174FF8078
:1009F600EDC3CC13CCCD13CDCE13CECF13CF047015
:070A0600F030D5DE020D57B0
:100D9B00E540242CF8E60540227829300702782C10
:100DAB00E475F001120D65020CFF2000EB7F2ED2D3
:100DBB00008018EF540F2490D43440D4FF30040B30
:100DCB00EF24BFB41A0050032461FFE54160021504
:100DDB00410544E5447002054330070D7829E4755D
:100DEB00F001120D65EF020D450217317403D207A6
:100DFB008003E4C207F5408B298A2A892BE4F5414D
:100E0B00F543F544E54160077F20120DD680F5755B
:100E1B0042FFC201C200C202C203C205C206C2081F
:100E2B00120DA4FF700D3007057F00120DE7AF44C4
:100E3B00AE4322B4255FC2D5C204120DA4FF24D049
:100E4B00B40A00501A75F00A784130D50508B6FF80
:100E5B000106C6A426F620D5047002D20380D9243D
:100E6B00CFB41A00EF5004C2E5D2040210D4D20161
:100E7B0080C6D20080C0D20280BCD2D580BAD20547
:100E8B0080B47F20120DD62002077401B5410040BB
:100E9B00F1120D9BFF120DD6020E0FD208D2068057
:100EAB0095120D9BFB120D9BFA120D9BF94A4B7081
:100EBB000679CB7A117BFF20022EE541602A7E005A
:100ECB008E82758300120D1860060EEE654270F06F
:100EDB00C2D5EBC0E0EAC0E0E9C0E0EE121134D0BD
:100EEB00E0F9D0E0FAD0E0FB120CFFFF60AAEBC0F8
:100EFB00E0EAC0E0E9C0E0120DD6D0E02401F9D061
:100F0B00E03400FAD0E0FBE5420460DCD542D98046
:100F1B0087D20280A212111760F7E542700104120A
:100F2B000A57A942600DE542600914F5421211BE41
:100F3B00EF60F3EA30E702F404C3995077EAF42543
:100F4B00420430E701E404F542800D12111760C131
:100F5B00EA05422542120A57EA783FF630E701E4E8
:100F6B00254204D5420420050114121134E4C0E0DB
:100F7B001211BE783FE6601320E70714F6120DBE80
:100F8B00802204F6D0E014C0E07F00120DBEE542D3
:100F9B006007120DB51542800B300503120DB5D04D
:100FAB00E0020E0FD0E00480C512111760A0E542DD
:100FBB0004120A57783FEAF6E54220050260010465
:050FCB002404121134A2
:100FD00074FF04C0E01211BE120DBEE542200502EE
:100FE0006003120DB5D0E0B542E87F45120DC87818
:100FF0003FE67F2B30E7047F2DF404C0E0120DD6CE
:10100000D0E075F00A84C0F0120DBFD0E0120DBF21
:10101000020E0F791080027908C206C2088008D239
:10102000D5790A8004790AC2D5E542047002F542F6
:10103000E4FAFDFEFF120D9BFC7B08200113120D4C
:101040009BFD7B1030000A120D9BFE120D9BFF7B57
:1010500020EC3382D592D55013C3E43000069FFFB5
:10106000E49EFEE42001039DFDE49CFCE4CBF8C279
:1010700001EC700CCFCECDCCE824F8F870F38017DB
:10108000C3EF33FFEE33FEED33FDEC33FCEB33FB0C
:10109000994002FB0FD8E9EB300105F8D0E0C448D5
:1010A000B201C0E00AEC4D4E4F78207B0070C2EADE
:1010B000B5420040BCC0E0121136D0F0D0E02001B3
:1010C00004C4C0E0C4B201C0F0120DBFD0F0D5F02E
:1010D000EB020E0F120D750EAC531013580E7D4C13
:1010E0000E794210174F101F44101F490E924310E3
:1010F00025550F56460FB4450F204711EB500E8172
:101100002D0E852E0EA82B0E89230EA62011D42A73
:101110000E414800000EA0E542B4FF0375420612DE
:101120000D9BFC120D9BFD120D9BFE120D9BFF787B
:1011300038020A86790AA2D5200314300509B910AD
:10114000020404B9080104A2D520060250010420BB
:1011500002689202B541005034C0E07F203003198C
:101160007F30A20272067205500F12118DC202C2A8
:1011700006C205C2087F30800F300503E9C0E012C7
:101180000DD6300503D0E0F9D0E0B541CC300517DD
:101190007F30B9100C120DD67F583004077F78804D
:1011A00003B90803120DD63002057F2D020DD67F3C
:1011B000202008F87F2B2006F322920280CF7F00A8
:1011C000B4070050052438F8E6FF22286E756C6CD1
:1011D0002900D201120D9B3001F8C201784130D5AF
:1011E0000108F6020E412D50434958120D9B24036D
:1011F000B405004001E49011E693120DC7743A1251
:0A1200000DC7D2037541040210135C
:100A0D00E9D2E7C933E833F892D5EDD2E7CD33EC2F
:070A1D0033FC5002B2D522A8
:100A2400EC30E7100FBF000C0EBE00080DBD000433
:100A34000BEB6014A2D5EB13FCED92E7FD2274FFDF
:100A4400FCFDFEFF22E480F8A2D574FF13FC7D8038
:030A5400E480EF4C
:100A5700F920E72824F950037907E4F42402FB1866
:100A6700DBFDE624FB5014E9600DE4F618E604F616
:0F0A7700B40A08E4F6D9F57401F60A22C2D522B2
:100A8600ED33EC3392D5FA602AB4FF33EDC2E77B3F
:100A9600FF60067A0A79ABE4227A0A79B420D50493
:100AA6007A0A79AF224E614E002B494E46002D49F7
:100AB6004E4600E47A08F608DAFC7B00740722E862
:100AC600C0E0ECC0E0EDC0E0EEC0E0EFC0E0EA75EB
:100AD600F010A4CAABF075F04DA42BFBE435F0FC86
:100AE600EA2410FAEB34C5FBEC34D9FCEDC2E7FF7F
:100AF60075F056A4F42411C5F0F434C58FF0A42A79
:100B0600E5F03BE43CF620E714120CBFD0E0FFD042
:100B1600E0FED0E0FDD0E0FC1208FB8014F40412E5
:100B26000CBFD0E0FFD0E0FED0E0FDD0E0FC120B21
:100B360089D0E0F8E6FAEDD2E7CD33EC332482FB38
:100B4600E4C3CF33CFCE33CECD33CD33DBF37B0708
:100B560075F00A846004F6081B0AE5F0F6088FF0C3
:100B6600740AA4FFACF08EF0740AA42CFEACF0500C
:100B7600010C8DF0740AA42CFDE435F0F608DBDEDA
:030B8600740722CF
:100B8900EC4D6011E8497017ED33EC3304600DE466
:100B9900FCFFFEFD22E933E8330470F8020A421231
:100BA9000A0D58046009E4CC248150062850090232
:100BB9000A4C284003020A49C0E0EB4A7044B98054
:100BC90006D0E0FB020A38EF4E701CBD8008EBFF2F
:100BD900EAFEE9FD80EBE98DF0A4FEE5F0020C7276
:100BE900E9CDF9EAFEEBFFEF89F0A4FCE5F0CE8947
:100BF900F0A42EFFE435F0CD89F0A42DFEE435F004
:100C09008067EF4E7005BD80D780C3EF8BF0A4AC31
:100C1900F0EE8BF0A42CFCE435F0F8EF8AF0A42C6C
:100C2900E5F038FCE433CB8DF0A42CFCE5F03BF87F
:100C3900EE8AF0A42CFCE5F038F8E433CF89F0A46F
:100C49002CFCE5F038CF3400CE89F0A42FFFE5F075
:100C59003EFEE433C98DF0A42EFEE5F039CD8AF0CD
:100C6900A42FFFE5F03EFEE43DFD33D0E0FB500745
:100C79000BBB000F020A4CEC2CFCEF33FFEE33FEEA
:060C8900ED33FD020A2418
:100C8F003F8000004120000042C80000447A00006D
:100C9F00461C400047C35000497424004B189680EF
:100CAF004CBEBC205A0E1BCA6753C21C749DC5AEE6
:100CBF00FB60065407601C2323120CEDEB543860C5
:100CCF0009120CD9120CE8120B89ECF8EDF9EEFAB7
:100CDF00EFCB22EB120CE880F1543803241C900C5C
:100CEF008FFE93FC0EEE93FD0EEE930ECE93FF222E
:0300000002182AB9
:0C182A00787FE4F6D8FD7581440212C3FB
:100CFF00BB010689828A83E0225002E722BBFE02F3
:090D0F00E32289828A83E4932225
:100D1800BB010CE58229F582E5833AF583E0225090
:100D280006E92582F8E622BBFE06E92582F8E222DA
:0D0D3800E58229F582E5833AF583E49322F4
:100D4500BB010689828A83F0225002F722BBFE018D
:020D5500F32287
:0E0D5700C3E49FFFE49EFEE49DFDE49CFC22AD
:100D6500FAE6FB0808E6F925F0F618E6CA3AF6228F
:100D7500D083D082F8E4937012740193700DA3A30D
:100D850093F8740193F5828883E473740293686021
:060D9500EFA3A3A380DF21
:10173100EFB40A07740D12173C740A309811A89976
:10174100B8130CC2983098FDA899C298B811F63018
:0717510099FDC299F59922F0
:0A1854003098FDAF99C2987E002283
:00000001FF
