:10154D00256300683965326C336C346500456E6413
:10155D0065642E00456E6465642E0A0043616E63FA
:08156D00656C6C65642E0A0038
:101495000459464646460224000002220000025135
:1014A5000000014E00202826535353534C535353E9
:1014B500534C535353534C535353534C4C53534C1A
:1014C500534C534C53534C4C4C534C4C534C4C4C2D
:030023000215EAD9
:1015EA0030980985994E854E99C29832309902C22F
:0215FA00993224
:10135600759850438921758DFCD28ED299E4F5801B
:101366007F14FE1214D6D2ACD2AFE54E600C640ADE
:101376006008AF4E1213C2E4F54EE54EB40AEBD246
:10138600987BFF7A15794D855960120E0FC2987BAE
:10139600FF7A15794D855A60120E0FC2987BFF7A37
:1013A60015794D855B60120E0FC2987BFF7A157911
:0C13B6004D855C60120E0FE4F54E80AE19
:061453008B088A09890ADA
:10145900E4F50BF50CAB08AA09A90A12159CC3E51A
:101469000C9FE50B9E5024AB08AA09A90A850C829A
:10147900850B83120D18FF12140F7F327E0012158F
:0B148900FC050CE50C70CE050B80CAC2
:011494002235
:1015B1007590CC7F147E001215FCE4F5907F14FE2B
:0315C1000215FC14
:1015C4007590667F147E001215FCE4F5907F14FE7E
:0315D4000215FC01
:02140F008F0D3F
:10141100121512EF4E603A7B007A00790D12121C00
:101421008E0E8F0FE4F510F511E50F25E025E02470
:10143100262511F8E6B453051215C480031215B11F
:101441000511E51170020510C39404E510940040E4
:01145100D8C2
:011452002277
:0213C2008F5D3D
:1013C400121512EF4E6043E5252401FFE43524FE97
:1013D400D3EF9404EE9400501074592525F8A65DBB
:1013E4000525E5257024052422E4FFFE745A2FF810
:1013F400E6FD74592FF8A6050FBF00010EEF640334
:0A1404004E70E974582525F8A65D26
:01140E0022BB
:10151200EF64306031EF6431602CEF64326027EFAA
:1015220064336022EF6434601DEF64356018EF6449
:10153200366013EF6437600EEF64386009EF643988
:0B1542006004E4FEFF227E007F012217
:1015FC00E4FDFCC3ED9FEC9E50070DBD00010C807B
:01160C00F2EB
:01160D0022BA
:1014D600AD07AC06E412099D7B327A5579D5783989
:1014E6001208FBA804A905AA06AB07E4FFFE7D8047
:1014F6007C471208038F608E5F8D5E8C5D1209D665
:0B1506007553008F54EEF550754F0038
:0115110022B7
:10160E0085548A85508CD28C308DFDC28CC28D2231
:10080000020A42E86480F8E933E83360110460F0DA
:10081000ED33EC337009E8FCE9FDEAFEEBFF22045E
:1008200060DED3EB9FEA9EE99DE8C2E78CF0C2F759
:1008300095F0400CE8CCF8E9CDF9EACEFAEBCFFB25
:10084000120A0D85D0F05804700320D5B3E8047067
:10085000075002B2D5020A4C92D5EC0460F7E4CC02
:10086000C0E0C398F8603B94186008400DD0E0FBEE
:10087000020A24E4FBFAC9FC8028E830E406E4C953
:10088000FBE4CAFCE830E305E4C9CACBFCE8540742
:100890006010F8C3E913F9EA13FAEB13FBEC13FC4D
:1008A000D8F130F52FC3E49CFCEF9BFFEE9AFEEDF0
:1008B00099FDD0E0FBEF4E4D4C701222DB03020A93
:1008C00049EC2CFCEF33FFEE33FEED33FDED30E76A
:1008D000EB020A24EF2BFFEE3AFEED39FDD0E0FBF0
:1008E00050130BBB0003020A4CED13FDEE13FEEF99
:0808F00013FFEC13FC020A24C3
:1008F800020A4CEC5D046005E859047003020A42E0
:10090800120A0D580460F6EC4860F2EC7004FDFE23
:10091800FF22C860DB2481C85009C39860025006D2
:10092800020A499850CAF582E9294B4A7005AB82F8
:10093800020A3875F0007C1A7880C3EF9BEE9AEDB6
:1009480099400DC3EF9BFFEE9AFEED99FDE842F04A
:10095800DC23ACF0D0E0FFD0E0FED0E0FDAB82209D
:10096800E7101BEB60BAEC2CFCEF33FFEE33FEED27
:1009780033FD020A24E803F830E705C0F075F000FB
:10098800EF2FFFEE33FEED33FD40B830E7C280AA0B
:1009980075F020800E75F010800575F0087D007EDA
:1009A800007F003392D530D503120D57EC33401039
:1009B800EF33FFEE33FEED33FDEC33FCD5F0ED22E3
:0E09C800E5F0247EA2D513CC92E7CDCEFF221F
:1009D600EDD2E7CD33EC3392D524814006E4FFFE19
:1009E600FDFC22FCE4CFCECDCC24E0501174FF8078
:1009F600EDC3CC13CCCD13CDCE13CECF13CF047015
:070A0600F030D5DE020D57B0
:100DAD00E5742460F8E6057422785D3007027860FA
:100DBD00E475F001120D65020CFF2000EB7F2ED2C1
:100DCD00008018EF540F2490D43440D4FF30040B1E
:100DDD00EF24BFB41A0050032461FFE575600215BE
:100DED00750578E5787002057730070D785DE47547
:100DFD00F001120D65EF020D450215757403D20752
:100E0D008003E4C207F5748B5D8A5E895FE4F57536
:100E1D00F577F578E57560077F20120DE880F5759B
:100E2D0076FFC201C200C202C203C205C206C208D9
:100E3D00120DB6FF700D3007057F00120DF9AF785A
:100E4D00AE7722B4255FC2D5C204120DB6FF24D0F1
:100E5D00B40A00501A75F00A787530D50508B6FF3A
:100E6D000106C6A426F620D5047002D20380D9242B
:100E7D00CFB41A00EF5004C2E5D2040210E6D2013D
:100E8D0080C6D20080C0D20280BCD2D580BAD20535
:100E9D0080B47F20120DE82002077401B575004063
:100EAD00F1120DADFF120DE8020E21D208D206800F
:100EBD0095120DADFB120DADFA120DADF94A4B7039
:100ECD000679DD7A117BFF20022EE575602A7E0002
:100EDD008E82758300120D1860060EEE657670F029
:100EED00C2D5EBC0E0EAC0E0E9C0E0EE121146D099
:100EFD00E0F9D0E0FAD0E0FB120CFFFF60AAEBC0E6
:100F0D00E0EAC0E0E9C0E0120DE8D0E02401F9D03C
:100F1D00E03400FAD0E0FBE5760460DCD576D980CC
:100F2D0087D20280A212112960F7E57670010412B2
:100F3D000A57A976600DE576600914F5761211D081
:100F4D00EF60F3EA30E702F404C3995077EAF42531
:100F5D00760430E701E404F576800D12112960C1A5
:100F6D00EA05762576120A57EA7873F630E701E43A
:100F7D00257604D5760420050114121146E4C0E04F
:100F8D001211D07873E6601320E70714F6120DD016
:100F9D00802204F6D0E014C0E07F00120DD0E5767B
:100FAD006007120DC71576800B300503120DC7D0E3
:100FBD00E0020E21D0E00480C512112960A0E57673
:100FCD0004120A577873EAF6E576200502600104EB
:050FDD0024041211467E
:100FE20074FF04C0E01211D0120DD0E57620050284
:100FF2006003120DC7D0E0B576E87F45120DDA78AE
:1010020073E67F2B30E7047F2DF404C0E0120DE875
:10101200D0E075F00A84C0F0120DD1D0E0120DD1EB
:10102200020E21791080027908C206C2088008D215
:10103200D5790A8004790AC2D5E576047002F5767C
:10104200E4FAFDFEFF120DADFC7B08200113120D28
:10105200ADFD7B1030000A120DADFE120DADFF7B0F
:1010620020EC3382D592D55013C3E43000069FFFA3
:10107200E49EFEE42001039DFDE49CFCE4CBF8C267
:1010820001EC700CCFCECDCCE824F8F870F38017C9
:10109200C3EF33FFEE33FEED33FDEC33FCEB33FBFA
:1010A200994002FB0FD8E9EB300105F8D0E0C448C3
:1010B200B201C0E00AEC4D4E4F78207B0070C2EACC
:1010C200B5760040BCC0E0121148D0F0D0E020015B
:1010D20004C4C0E0C4B201C0F0120DD1D0F0D5F00A
:1010E200EB020E21120D750EBE531025580E8F4CB9
:1010F2000E8B4210294F1031441031490EA4431077
:1011020037550F68460FC6450F324711FD500E93F3
:101112002D0E972E0EBA2B0E9B230EB82011E62A07
:101122000E534800000EB2E576B4FF037576061240
:101132000DADFC120DADFD120DADFE120DADFF7821
:101142006C020A86790AA2D5200314300509B91067
:10115200020404B9080104A2D520060250010420A9
:1011620002689202B575005034C0E07F2030031946
:101172007F30A20272067205500F12119FC202C284
:1011820006C205C2087F30800F300503E9C0E012B5
:101192000DE8300503D0E0F9D0E0B575CC30051785
:1011A2007F30B9100C120DE87F583004077F788029
:1011B20003B90803120DE83002057F2D020DE87F06
:1011C200202008F87F2B2006F322920280CF7F0096
:1011D200B407005005246CF8E6FF22286E756C6C8B
:1011E2002900D201120DAD3001F8C201787530D557
:1011F2000108F6020E532D50434958120DAD240337
:10120200B405004001E49011F893120DD9743A121A
:0A1212000DD9D203757504021025F2
:100A0D00E9D2E7C933E833F892D5EDD2E7CD33EC2F
:070A1D0033FC5002B2D522A8
:100A2400EC30E7100FBF000C0EBE00080DBD000433
:100A34000BEB6014A2D5EB13FCED92E7FD2274FFDF
:100A4400FCFDFEFF22E480F8A2D574FF13FC7D8038
:030A5400E480EF4C
:100A5700F920E72824F950037907E4F42402FB1866
:100A6700DBFDE624FB5014E9600DE4F618E604F616
:0F0A7700B40A08E4F6D9F57401F60A22C2D522B2
:100A8600ED33EC3392D5FA602AB4FF33EDC2E77B3F
:100A9600FF60067A0A79ABE4227A0A79B420D50493
:100AA6007A0A79AF224E614E002B494E46002D49F7
:100AB6004E4600E47A08F608DAFC7B00740722E862
:100AC600C0E0ECC0E0EDC0E0EEC0E0EFC0E0EA75EB
:100AD600F010A4CAABF075F04DA42BFBE435F0FC86
:100AE600EA2410FAEB34C5FBEC34D9FCEDC2E7FF7F
:100AF60075F056A4F42411C5F0F434C58FF0A42A79
:100B0600E5F03BE43CF620E714120CBFD0E0FFD042
:100B1600E0FED0E0FDD0E0FC1208FB8014F40412E5
:100B26000CBFD0E0FFD0E0FED0E0FDD0E0FC120B21
:100B360089D0E0F8E6FAEDD2E7CD33EC332482FB38
:100B4600E4C3CF33CFCE33CECD33CD33DBF37B0708
:100B560075F00A846004F6081B0AE5F0F6088FF0C3
:100B6600740AA4FFACF08EF0740AA42CFEACF0500C
:100B7600010C8DF0740AA42CFDE435F0F608DBDEDA
:030B8600740722CF
:100B8900EC4D6011E8497017ED33EC3304600DE466
:100B9900FCFFFEFD22E933E8330470F8020A421231
:100BA9000A0D58046009E4CC248150062850090232
:100BB9000A4C284003020A49C0E0EB4A7044B98054
:100BC90006D0E0FB020A38EF4E701CBD8008EBFF2F
:100BD900EAFEE9FD80EBE98DF0A4FEE5F0020C7276
:100BE900E9CDF9EAFEEBFFEF89F0A4FCE5F0CE8947
:100BF900F0A42EFFE435F0CD89F0A42DFEE435F004
:100C09008067EF4E7005BD80D780C3EF8BF0A4AC31
:100C1900F0EE8BF0A42CFCE435F0F8EF8AF0A42C6C
:100C2900E5F038FCE433CB8DF0A42CFCE5F03BF87F
:100C3900EE8AF0A42CFCE5F038F8E433CF89F0A46F
:100C49002CFCE5F038CF3400CE89F0A42FFFE5F075
:100C59003EFEE433C98DF0A42EFEE5F039CD8AF0CD
:100C6900A42FFFE5F03EFEE43DFD33D0E0FB500745
:100C79000BBB000F020A4CEC2CFCEF33FFEE33FEEA
:060C8900ED33FD020A2418
:100C8F003F8000004120000042C80000447A00006D
:100C9F00461C400047C35000497424004B189680EF
:100CAF004CBEBC205A0E1BCA6753C21C749DC5AEE6
:100CBF00FB60065407601C2323120CEDEB543860C5
:100CCF0009120CD9120CE8120B89ECF8EDF9EEFAB7
:100CDF00EFCB22EB120CE880F1543803241C900C5C
:100CEF008FFE93FC0EEE93FD0EEE930ECE93FF222E
:030000000212CA1F
:0C12CA00787FE4F6D8FD758178021311DE
:100CFF00BB010689828A83E0225002E722BBFE02F3
:090D0F00E32289828A83E4932225
:100D1800BB010CE58229F582E5833AF583E0225090
:100D280006E92582F8E622BBFE06E92582F8E222DA
:0D0D3800E58229F582E5833AF583E49322F4
:100D4500BB010689828A83F0225002F722BBFE018D
:020D5500F32287
:0E0D5700C3E49FFFE49EFEE49DFDE49CFC22AD
:100D6500FAE6FB0808E6F925F0F618E6CA3AF6228F
:100D7500D083D082F8E4937012740193700DA3A30D
:100D850093F8740193F5828883E473740293686021
:060D9500EFA3A3A380DF21
:10157500EFB40A07740D121580740A309811A899F2
:10158500B8130CC2983098FDA899C298B811F630D6
:0715950099FDC299F59922AE
:10159C00E4FFFE120CFF600C0FEF70010E09E970F6
:0515AC00F20A80EF22AD
:10121C008B128A138914AB12AA13A914120CFFFF98
:10122C001215D7500D74012514F514E43513F5136C
:10123C0080E4D209AB12AA13A914120CFFFF642B81
:10124C006004EFB42D1BAB120514E514AA13700245
:10125C00051314F9120CFF642D6003D38001C392A3
:10126C0009E4F515F516AB12AA13A914120CFFFF1D
:10127C0012161E5036AB12AA13A914120CFFFF3310
:10128C0095E0FEEF24D0FBEE34FFFAAE15AF167CE2
:10129C00007D0A120D9BEF2BF516EE3AF515740135
:1012AC002514F514E43513F51380BB300906AE157F
:0E12BC00AF168009C3E49516FFE49515FE22D7
:1012D600021356E493A3F8E493A34003F68001F2C5
:1012E60008DFF48029E493A3F85407240CC8C33319
:1012F600C4540F4420C8834004F456800146F6DFE8
:10130600E4800B0102040810204080901495E47ECE
:10131600019360BCA3FF543F30E509541FFEE493DC
:10132600A360010ECF54C025E060A840B8E493A3A3
:10133600FAE493A3F8E493A3C8C582C8CAC583CACE
:10134600F0A3C8C582C8CAC583CADFE9DEE780BE86
:0114D5000016
:100D9B00EF8DF0A4A8F0CF8CF0A428CE8DF0A42E6C
:020DAB00FE2226
:0F161E00EFC394304007EF943A50028001C3228B
:1015D700EFC394094005EF940E4003BF2003D38067
:0315E70001C3221B
:00000001FF
